:020000040000FA
:020000000528D1
:06000A00860183160030A0
:10001000860083128601061202308600861359205C
:100020008617592086135920861759208613592080
:1000300086175920861359208617592006124230F8
:10004000860002308F004A202830860014308F004E
:1000500006164A2006122030860086115920861581
:100060005920861159208615592086115920861548
:1000700059208611592086155920061224308600F1
:1000800002308F004A208230860014308F0006161E
:100090004A200B280A308E00C8308D00A5308C0015
:1000A0008C0B50288D0B4E288E0B4C288F0B4A281A
:1000B000080005308E00C8308D00A5308C008C0BF8
:0C00C0005F288D0B5D288E0B5B2808006C
:02400E00FA3F77
:00000001FF
